:020000040800F2
:10000000201A002045010008610300085903000878
:100010005D0300083D020008BF1600080000000054
:100020000000000000000000000000008111000836
:100030004102000800000000AB010008FD120008AA
:100040005F0100085F0100085F0100085F01000810
:100050005F0100085F0100085F0100085F01000800
:100060005F0100085F0100085F0100085F010008F0
:100070005F0100085F0100085F0100085F010008E0
:100080005F0100085F0100085F0100085F010008D0
:100090005F0100085F0100085F0100085F010008C0
:1000A0005F0100085F0100085F0100085F010008B0
:1000B0005F0100085F0100085F0100085F010008A0
:1000C0005F0100085F0100085F0100085F01000890
:1000D0005F010008F11300085F0100085F010008DC
:1000E0005F0100085F0100085F0100085F01000870
:1000F0005F0100085F0100085F0100085F01000860
:100100005F0100085F0100085F0100085F0100084F
:100110005F0100085F0100085F0100085F0100083F
:100120005F0100085F0100085F0100085F0100082F
:10013000DFF80CD000F06AF8004800470517000807
:10014000201A00200648804706480047FEE7FEE7E1
:10015000FEE7FEE7FEE7FEE7FEE7FEE7FEE7FEE777
:100160002513000831010008EFF3108072B67047C4
:1001700080F3108870471D484FF0FF010170002088
:1001800080F309881A48012101701A484FF0805104
:10019000016062B6FEE717484FF08051016070477A
:1001A00014484FF080510160704772B6EFF3098038
:1001B00028B1203880E8F00F0F490968086000B5C1
:1001C0000E4880475DF804EB0D480E490A7802702E
:1001D00009480D490A680260106890E8F00F203065
:1001E00080F309884EF0040E62B6704722ED00E0FD
:1001F0002B00002004ED00E0340000203F0A00083E
:1002000026000020270000203C000020064C074D5F
:1002100006E0E06840F0010394E8070098471034D6
:10022000AC42F6D3FFF788FF50180008701800089A
:1002300010B54FF4165000F0A5FF10BD00BFFEE74B
:1002400070472DE9F04102460025002600200023DA
:100250000024002791F803C00CF00F0591F803C0AB
:100260000CF0100CBCF1000F03D091F802C04CEA66
:10027000050591F800C0BCF1000F31D014680020D2
:100280002BE04FF0010C0CFA00F3B1F800C00CEABF
:1002900003069E4220D183004FF00F0C0CFA03F7A7
:1002A000BC4305FA03FC4CEA040491F803C0BCF11A
:1002B000280F06D14FF0010C0CFA00FCC2F814C054
:1002C0000AE091F803C0BCF1480F05D14FF0010CD2
:1002D0000CFA00FCC2F810C0401C0828D1D31460EE
:1002E000B1F800C0BCF1FF0F34DD546800202EE0EF
:1002F00000F1080C4FF0010808FA0CF3B1F800C047
:100300000CEA03069E4221D183004FF00F0C0CFA39
:1003100003F7BC4305FA03FC4CEA040491F803C05C
:10032000BCF1280F05D100F1080C08FA0CF8C2F84E
:10033000148091F803C0BCF1480F07D100F1080CFC
:100340004FF0010808FA0CF8C2F81080401C082889
:10035000CED35460BDE8F08100BFFEE700BFFEE7EA
:10036000704708B54FF4A06000F046F825208DF8DE
:10037000000001208DF801008DF802008DF80300C7
:10038000684600F001F808BD70B5002100230F2277
:10039000C47804B3154C246804F4E064C4F5E06444
:1003A000210AC1F10403CA40447804FA03F18478B5
:1003B0001440214309010E4C0678A155047804F03D
:1003C0001F050124AC4005786D11AD0005F1E02555
:1003D000C5F8004109E0047804F01F050124AC4091
:1003E000044D0678761145F8264070BD0CED00E00E
:1003F00000E400E080E100E002490143024A1160AC
:10040000704700000000FA050CED00E010B500F0A8
:100410000DF800F08FFC00F0A7FC00F0C9FC00F024
:1004200061FC00F0F9FC00F002F810BD7047704765
:1004300006480078012808D105480078FF2804D232
:1004400003480078401C0249087070472B000020C8
:100450002400002010B500241748007801282AD174
:10046000FFF782FE044615480078002804DD134893
:100470000078401E1149087010480078C0B9104833
:100480000078A8B900F020FD0E4800780E490978E0
:1004900088420DD00D480B49097850F821000C49CD
:1004A00008600C480068401C0A490860FFF778FEA5
:1004B0002046FFF75DFE10BD2B0000202400002029
:1004C0002500002027000020260000200C1400201A
:1004D0003C0000201C00002070B505460026124894
:1004E0000078002801DD002070BDFFF73DFE0646C4
:1004F0000E480468006820B10C48006840680B4949
:1005000008603046FFF734FE5CB101202070002007
:10051000208165603F2060730021A173204600F0B8
:10052000D3FB2046E0E7000024000020200000204C
:100530002DE9F04105460F4614464FF0000814B966
:100540000020BDE8F0811DB9042020700020F8E7EC
:100550002878012803D0012020700020F1E73548D9
:100560000078002803DD022020700020E9E73248EF
:100570000078002803DD0D2020700020E1E7FFF760
:10058000F3FD80466E6846B1002068604046FFF784
:10059000EFFD002020703046D3E728480068807EB9
:1005A00040F002002549096888760020234909683F
:1005B000C876224800680783284600F04BFB404677
:1005C000FFF7D6FD00F04CFCFFF7CEFD80461B4840
:1005D0000068C07E20B101280DD002280AD105E0B4
:1005E000164800684669002020700DE000260E20A5
:1005F000207009E000BF29461048006800F0FAFAB0
:1006000000260A20207000BF00BF00200B490968A7
:1006100088760A490968C87608490968C8600749A0
:10062000096808610549096848614046FFF7A0FD6F
:10063000304686E7240000202500002034000020FA
:1006400070B504460D4600260CB9042070BD0DB9E6
:100650000320FBE72078012801D00120F6E7FFF70F
:1006600083FD0646A07A60B1002302222946204677
:1006700000F07AFA3046FFF77BFD00F0F1FB002036
:10068000E4E7606820B13046FFF772FD1420DDE733
:1006900065603046FFF76CFD0020D7E710B50B48CA
:1006A000007890B900F010FC0948007809490870FA
:1006B00009480749097850F82100084908600846A8
:1006C000006807490860FFF756FD10BD2B000020A9
:1006D00027000020260000200C1400203C000020F1
:1006E00034000020704700002DE9FE4F06460F46FB
:1006F00090461C464FF000090F2C02DD2A20BDE871
:10070000FE8FFFF731FD81461F480078002804DD89
:100710004846FFF72DFD3C20F1E71C4850F8240027
:1007200060BB0120194941F824004846FFF720FD2D
:10073000002342463946304600F034F98246002014
:10074000009001900346024651460290204600F078
:10075000E9FB054635B90E48007801280CD100F0B8
:100760007FFB09E0FFF700FD81460020074941F8C3
:1007700024004846FFF7FCFC2846C0E74846FFF740
:10078000F7FC2820BBE70000240000200C14002008
:100790002B0000207047000070B5054600264B482E
:1007A0000078002801DD402070BD0F2D01D13E20D2
:1007B000FAE70F2D03DBFF2D01D02A20F4E7FFF726
:1007C000D3FC0646FF2D02D141480068057F414811
:1007D00050F8254024B93046FFF7CAFC4320E3E730
:1007E000012C04D13046FFF7C3FC3D20DCE7A07F9D
:1007F0003949085CE17F8843A17F374A5054A07F84
:100800001146085C30B994F82010344800788843C9
:1008100032490870E06818B12046E16800F0EAF952
:10082000206918B12046216900F0F7F900202083E3
:10083000A076E0762A480078FF2804D2284800787D
:10084000401C274908703046FFF792FC00F08AF9F7
:10085000FFF78AFC064622480078002804DD20487D
:100860000078401E1E490870204600F043F81D48DD
:100870000078401E1B4908700020164941F82500E9
:10088000A06830B900206168886017496068086016
:1008900005E0D4E901014860D4E9011088601348FB
:1008A00000686060114804603F2084F82200002145
:1008B000232001553046FFF75BFC0D4800780128E6
:1008C00001D100F0CDFA00206EE7000024000020E6
:1008D000340000200C1400202900002028000020F3
:1008E000250000202C0000204000002038000020BF
:1008F0002B000020704770472DE9F04705460F4652
:1009000014464FF000090CB9BDE8F0870F2D04DD47
:10091000FF2D02D02A202070F6E717B90C20207096
:10092000F2E71D480078002802DD12202070EBE776
:10093000FFF71AFC8146FF2D02D118480068057F99
:10094000174850F825602EB94846FFF711FC4320A0
:100950002070D9E7012E05D14846FFF709FC432056
:100960002070D1E7384600F0D3FA8046B8F10F0F77
:1009700005DD4846FFF7FCFB41202070C4E73946FF
:1009800006F1220000F0B6FA4846FFF7F1FB00201E
:10099000207000BFB8E700002400002034000020D1
:1009A0000C14002070B5044610464FF080750560A9
:1009B000051F28462C606FF00106051F28462E6093
:1009C0004FF01236051F28462E604FF00336051FE4
:1009D00028462E604FF00236051F28462E607610FE
:1009E000051F28462E60051F284629604FF0113646
:1009F000051F28462E604FF01036051F28462E6032
:100A00004FF00936051F28462E604FF00836051FA7
:100A100028462E604FF00736051F28462E604FF0FF
:100A20000636051F28462E604FF00536051F28465E
:100A30002E604FF00436051F28462E6070BD7047AB
:100A400030B585B0684600F031FB4FF47A720198FA
:100A5000B0FBF2F1B1F1807F00D31DE021F07F40C7
:100A6000401E4FF0E022506150170F22002807DA95
:100A700013071D0E094B00F00F04241F1D5503E042
:100A800013071C0E064B1C5400BF00204FF0E02241
:100A900090610720106100BF05B030BD18ED00E087
:100AA00000E400E070B500262948007801284CD108
:100AB0002848007820B1012804D0022809D103E099
:100AC00001250BE0002509E00125012021490870DE
:100AD00004E0012500201F49087000BF00BF05B9D0
:100AE00070BD1D4804682DE0FFF73EFB0646208BD5
:100AF00020B3208B401E80B22083F8B9A07E00F086
:100B0000370030B1A07E20F03700A0760120E076DB
:100B100001E00020E076A07E00F0080070B994F8B3
:100B200020000E49097808430C490870A07F0C4941
:100B3000085CE17F0843A17F094A5054646830464D
:100B4000FFF716FB207F0F28CED100BFC8E70000BB
:100B50002B0000204400002040000020280000203E
:100B600029000020704700002DE9F04F05460F4690
:100B700090469946A87A1B490E5C05F10B00805DF2
:100B800011F800B00BEBC60000F0FF0A164850F851
:100B90002A40002020836761A07E20EA0800A0761A
:100BA00084F81B90A07E00F0080060B994F8200043
:100BB0000E49097808430D4908700D48805DE17FB2
:100BC00008430B4988552946204600F013F8206950
:100BD00020B12046216900F020F8E5605046BDE8CC
:100BE000F08F0000501700080C140020280000208F
:100BF0002900002010B5827F01F10B039B5CC47FAC
:100C0000A34301F10B04A35423469B5C23B98B7AC5
:100C100090F82040A3438B7210BDF0B50246947F3C
:100C200092F82050D67F0B4618680FE000F10B07B2
:100C30003F5DB74300F10B0C0CF8047067463F5D55
:100C400017B9877AAF4387721B1D18680028EDD14A
:100C5000F0BD000010B5194A1268D060174A12683A
:100C6000937F00F10B02D25C144B1B68DB7F1A43AD
:100C7000124B1B689C7F00F10B031A55827A0F4BB5
:100C80001B6893F820301A4382720C4A1268917FD5
:100C90000B4A525C094B1B68DB7F9A43084B5A5442
:100CA0001A46525C42B9054A126892F82030054A49
:100CB00012789A43034B1A7010BD000034000020D4
:100CC00029000020280000200023837200F10B017E
:100CD000002204E0002301F8013B531CDAB2022A8F
:100CE000F8DB704730B54FF4A071104800F0AEF853
:100CF0000E4B03F1200500240AE0002018705D600F
:100D00003F2058730021997320332035601C84B232
:100D1000092CF2DB0020187058603F205873002126
:100D2000997302480249086030BD0000CC100020D1
:100D30002000002000200649087006490870064976
:100D4000087006490870064908600649086070473F
:100D500024000020250000202C0000202B00002073
:100D60001C0000203000002000220B4B1A700B49A1
:100D7000002004E0002201F8012B421CD0B202281E
:100D8000F8DB0022064B1A70064B1A70064B1A60ED
:100D9000064B1A6070470000280000202900002040
:100DA00026000020270000203C0000203400002006
:100DB00030B54FF4EA71144800F048F84021134868
:100DC00000F044F8104B03F1340500240AE05D60A4
:100DD0003F2083F8220000212320C15434333435CE
:100DE000601CC4B2082CF2D3002058603F2083F866
:100DF000220000212320C154002005490860024838
:100E00000449086030BD00004C1400200C14002080
:100E1000400000203800002008B50F23054A0021BB
:100E20000548FFF761FC6A4604A10F20FFF764FD47
:100E300008BD0000081400202910000875432F4F3A
:100E4000532D49492049646C6500000004E00022EC
:100E500000F8012B4A1E91B20029F8DC704700000F
:100E600010B50024FFF780F9044610480078C0B997
:100E70000F480078A8B900F027F80E4800780E490E
:100E8000097888420DD00D480A49097850F82100A8
:100E90000B4908600B480068401C0A490860FFF7CE
:100EA0007AF92046FFF764F910BD00002400002005
:100EB0002500002027000020260000200C14002020
:100EC0003C0000201C0000200649074A1278885C7C
:100ED0000649095C034A515C01EBC001044A1170E8
:100EE000704700005017000828000020290000204B
:100EF000270000200246002005E011F8013B02F81F
:100F0000013B431CD8B20B78002BF6D1137070470D
:100F10000146002002E0491C421CD0B20A78002A97
:100F2000F9D170472DE9F84F05460E461746984609
:100F3000DDE90BABDDF8289000200090FFF714F9F5
:100F4000009033480468002C5DD031496068086027
:100F50000098FFF70DF9266025770020A076E0764F
:100F6000208300BF00BF00BF00BF00BF84F8210086
:100F7000E810A07705F007006077A17F0120884086
:100F800084F82000617F01208840E0770020E06045
:100F9000206160613F2084F8220000212320015558
:100FA0002046FFF79FFB2046FFF7F4FBFFF7DCF836
:100FB0000090184840F825401748006860600020FD
:100FC000A0601548006810B113480068846012489A
:100FD000046094F820001149097808430F4908700B
:100FE000A07F0F49085CE17F0843A17F0C4A505461
:100FF0000C480078401C0B4908700098FFF7B8F8BF
:101000000020BDE8F88F0098FFF7B2F84220F8E71B
:10101000380000200C140020400000202800002090
:10102000290000202C000020002400BFFFF79CF8BE
:10103000044605480068401C034908602046FFF745
:1010400097F8FFF758FCF1E73000002029B1064A75
:1010500012690243044B1A6104E0034A1269824395
:10106000014B1A61704700000010024029B1064A86
:1010700092690243044B9A6104E0034A92698243F5
:10108000014B9A61704700000010024029B1064AE6
:10109000D2680243044BDA6004E0034AD268824318
:1010A000014BDA60704700000010024030B50021AB
:1010B0000022002400232D4D6D6805F00C0121B1A4
:1010C000042905D0082923D105E0294D056022E037
:1010D000274D05601FE0254D6D6805F47012234D06
:1010E0006D6805F48034022505EB92421CB9214D50
:1010F000554305600BE01D4D6D6805F400351DB1CD
:101100001C4D5543056002E0194D5543056002E052
:10111000174D056000BF00BF144D6D6805F0F0016C
:101120000909154D6B5C0568DD4045600F4D6D6824
:1011300005F4E061090A104D6B5C4568DD4085608F
:101140000A4D6D6805F46051C90A0B4D6B5C45682A
:10115000DD40C560054D6D6805F44041890B074DC4
:101160006B5CC568B5FBF3F5056130BD001002404E
:1011700000127A0000093D00050000201500002043
:101180007047000010B586B00446012144F2040007
:10119000FFF76CFF1D4800F073F94FF40070ADF8D5
:1011A000140003208DF8160018208DF8170005A9EB
:1011B0001748FFF746F84FF48060ADF8140004209C
:1011C0008DF8170005A91248FFF73BF8019400209D
:1011D000ADF80800ADF80A00ADF80C00ADF810004D
:1011E0000C20ADF80E0001A9084800F0F3F9FFF754
:1011F000B8F8012240F22551044800F0C6F9012157
:10120000024800F031F906B010BD0000003801407E
:101210000008014010B500F001F810BD0CB5002029
:10122000019000903348006840F4803031490860F4
:1012300000BF3048006800F4003000900198401C66
:101240000190009818B90198B0F5A06FF1D1294824
:10125000006800F4003010B10120009001E000208F
:1012600000900098012843D12348006840F0100006
:10127000214908600846006820F00300086008461D
:10128000006840F0020008601A4840681949486048
:101290000846406848600846406840F480604860FE
:1012A0000846406820F47C1048600846406840F4D6
:1012B000E81048600846006840F08070086000BF91
:1012C0000C48006800F000700028F9D00948406818
:1012D00020F00300074948600846406840F00200DB
:1012E000486000BF0348406800F00C000828F9D1AE
:1012F0000CBD0000001002400020024010B5FEF7B7
:1013000033FF044606480078401C05490870204613
:10131000FEF72EFFFFF7C6FBFFF79CF810BD00009D
:101320002400002010B51348006840F00100114966
:10133000086008464068104908400E494860084661
:1013400000680E4908400B4908600846006820F410
:10135000802008600846406820F4FE0048604FF492
:101360001F008860FFF756FF4FF0006004490860D7
:1013700010BD0000001002400000FFF8FFFFF6FE65
:1013800008ED00E070B505460024FFF759FBFEF7B5
:10139000EBFE04460523064A00210648FFF7A4F9A0
:1013A0002046FEF7E5FE0020FFF7F6F970BD0000CD
:1013B00048100020B913000808B500240020FFF7EA
:1013C0008BF80A49086000BF6A4600210748006898
:1013D000FFF7AEF80546FEF7C7FE0446284600F0C4
:1013E000A5F92046FEF7C4FEEEE70000000000204D
:1013F00010B5FFF71DF840F22551174800F09BF893
:1014000008B3154800F052F91449154A1278885467
:10141000084613490978405C0A2808D00F4810494B
:101420000978405C18B10E4800787F280CD1002064
:101430000A490B4A127888540A480068FFF700F9F5
:1014400000200749087004E005480078401C044962
:101450000870FEF7FFFF10BD003801404C1000205F
:10146000040000200000002021B1828942F40052D3
:10147000828104E082894DF6FF731A4082817047B1
:1014800010B504462048844209D101218803FFF7A2
:10149000FDFD00214FF48040FFF7F8FD32E01B48CE
:1014A000844209D101214804FFF7D0FD00214FF407
:1014B0000030FFF7CBFD25E01548844209D101211A
:1014C0008804FFF7C3FD00214FF48020FFF7BEFD25
:1014D00018E01048844209D10121C804FFF7B6FD85
:1014E00000214FF40020FFF7B1FD0BE00A488442D1
:1014F00008D101210805FFF7A9FD00214FF4801054
:10150000FFF7A4FD10BD000000380140004400407A
:1015100000480040004C00400050004002460020BF
:10152000B1F5007F00D100BF13880B400BB1012043
:1015300000E00020704770B502460024002300251B
:10154000002040F66A16B14200D100BFC1F3421537
:1015500001F01F03012606FA03F3012D02D196893B
:10156000334006E0022D02D1168A334001E0968A0C
:1015700033400C12012606FA04F41688344013B1E5
:101580000CB1012000E0002070BDF0B5034600243E
:1015900000260025002040F66A17B94200D100BF9E
:1015A0001846C1F3421401F01F06012707FA06F599
:1015B000012C01D10C3004E0022C01D1103000E0EC
:1015C00014301AB107682F43076002E00768AF4381
:1015D0000760F0BD2DE9F04786B005460E460024B1
:1015E000A24600BFA1460027B08900B100BF2F4628
:1015F0002C8A4CF6FF700440F08804432C82AC899E
:101600004EF6F3100440B0883189084371890843CD
:101610000443AC81AC8A4FF6FF400440B0890443D8
:10162000AC8201A8FFF742FD1F48874202D1DDF8D6
:1016300010A001E0DDF80CA0A88900F4004040B142
:101640000AEBCA0000EB0A1031684900B0FBF1F860
:1016500007E00AEBCA0000EB0A1031688900B0FB12
:10166000F1F86420B8FBF0F004012009642101FBCB
:101670001089A88900F4004040B1322000EBC90075
:10168000B0FBF1F000F00700044308E0322000EB6B
:1016900009106421B0FBF1F000F00F0004432C812D
:1016A00006B0BDE8F0870000003801400146888898
:1016B000C0F308007047C1F308028280704700BF82
:1016C000FEE702E008C8121F08C1002AFAD17047DD
:1016D0007047002001E001C1121F002AFBD17047B2
:1016E00070B504460D46E1B20548FFF7E4FF00BFC0
:1016F00040210348FFF712FF0028F9D0204670BDB3
:101700000038014010B5FEF781FEFEF791FD002381
:10171000044A19460448FEF7E7FFFEF7BFFF002022
:1017200010BD0000480800208513000810B50446CD
:1017300001E0FFF7D5FF14F8010B04490028F8D1A8
:10174000BDE810400A20FFF7CBBF00004800002092
:10175000000001000200010003000100020001007E
:10176000040001000200010003000100020001006A
:101770000500010002000100030001000200010059
:10178000040001000200010003000100020001004A
:101790000600010002000100030001000200010038
:1017A000040001000200010003000100020001002A
:1017B0000500010002000100030001000200010019
:1017C000040001000200010003000100020001000A
:1017D00007000100020001000300010002000100F7
:1017E00004000100020001000300010002000100EA
:1017F00005000100020001000300010002000100D9
:1018000004000100020001000300010002000100C9
:1018100006000100020001000300010002000100B7
:1018200004000100020001000300010002000100A9
:101830000500010002000100030001000200010098
:101840000400010002000100030001000200010089
:1018500070180008000000204C000000C2160008AC
:10186000BC1800084C000020D4190000D216000853
:101870000000000000000000000102030401020358
:101880000406070809020406080000000000000022
:101890000000000000000000000000000000000048
:1018A0000000000000000000000000000000000038
:0C18B0000000000000000000000000002C
:0400000508000131BD
:00000001FF
